:020000040000fa
:080000000002040000000000f2
:020000040000fa
:04000800a80200004a
:020000040000fa
:04000c00a802000046
:020000040000fa
:04001000a802000042
:020000040000fa
:04001400a80200003e
:020000040000fa
:04001800a80200003a
:020000040000fa
:04001c00a802000036
:020000040000fa
:04002000a802000032
:020000040000fa
:04002400a80200002e
:020000040000fa
:04002800a80200002a
:020000040000fa
:04002c00a802000026
:020000040000fa
:04003000a802000022
:020000040000fa
:04003400620900005d
:020000040000fa
:04003800a80200001a
:020000040000fa
:04003c00a802000016
:020000040000fa
:04004000a802000012
:020000040000fa
:04004400a80200000e
:020000040000fa
:04004800a80200000a
:020000040000fa
:04004c00a802000006
:020000040000fa
:04005000ea060000bc
:020000040000fa
:04005400a8020000fe
:020000040000fa
:04005800a8020000fa
:020000040000fa
:04005c00a8020000f6
:020000040000fa
:04006000a8020000f2
:020000040000fa
:04006400a8020000ee
:020000040000fa
:04006800a8020000ea
:020000040000fa
:04006c00a8020000e6
:020000040000fa
:04007000a8020000e2
:020000040000fa
:04007400a8020000de
:020000040000fa
:04007800a8020000da
:020000040000fa
:04007c00a8020000d6
:020000040000fa
:04008000a8020000d2
:020000040000fa
:04008400a8020000ce
:020000040000fa
:04008800a8020000ca
:020000040000fa
:04008c00a8020000c6
:020000040000fa
:04009000a8020000c2
:020000040000fa
:04009400a8020000be
:020000040000fa
:04009800a8020000ba
:020000040000fa
:04009c00a8020000b6
:020000040000fa
:0400a000a8020000b2
:020000040000fa
:0400a400a8020000ae
:020000040000fa
:0400a800a8020000aa
:020000040000fa
:0400ac00a8020000a6
:020000040000fa
:0400b000a8020000a2
:020000040000fa
:0400b400a80200009e
:020000040000fa
:0400b800a80200009a
:020000040000fa
:0400bc00a802000096
:020000040000fa
:0400c000a802000092
:020000040000fa
:0400c400a80200008e
:020000040000fa
:0400c800a80200008a
:020000040000fa
:0400cc00a802000086
:020000040000fa
:0400d000a802000082
:020000040000fa
:0400d400a80200007e
:020000040000fa
:0400d800a80200007a
:020000040000fa
:0400dc00a802000076
:020000040000fa
:0400e000a802000072
:020000040000fa
:0400e400a80200006e
:020000040000fa
:0400e800a80200006a
:020000040000fa
:0400ec00a802000066
:020000040000fa
:0400f000a802000062
:020000040000fa
:0400f400a80200005e
:020000040000fa
:0400f800a80200005a
:020000040000fa
:0400fc00a802000056
:020000040000fa
:04010000a802000051
:020000040000fa
:04010400a80200004d
:020000040000fa
:04010800a802000049
:020000040000fa
:04010c00a802000045
:020000040000fa
:04011000a802000041
:020000040000fa
:04011400a80200003d
:020000040000fa
:04011800a802000039
:020000040000fa
:04011c00a802000035
:020000040000fa
:04012000a802000031
:020000040000fa
:04012400a80200002d
:020000040000fa
:04012800a802000029
:020000040000fa
:04012c00a802000025
:020000040000fa
:04013000a802000021
:020000040000fa
:04013400a80200001d
:020000040000fa
:04020800a802000048
:020000040000fa
:04020c00a802000044
:020000040000fa
:04021000a802000040
:020000040000fa
:04021400a80200003c
:020000040000fa
:04021800a802000038
:020000040000fa
:04021c00a802000034
:020000040000fa
:04022000a802000030
:020000040000fa
:04022400a80200002c
:020000040000fa
:04022800a802000028
:020000040000fa
:04022c00a802000024
:020000040000fa
:04023000a802000020
:020000040000fa
:04023400a80200001c
:020000040000fa
:04023800a802000018
:020000040000fa
:04023c00a802000014
:020000040000fa
:04024000a802000010
:020000040000fa
:04024400a80200000c
:020000040000fa
:04024800a802000008
:020000040000fa
:04024c00a802000004
:020000040000fa
:04025000a802000000
:020000040000fa
:04025400a8020000fc
:020000040000fa
:04025800a8020000f8
:020000040000fa
:04025c00a8020000f4
:020000040000fa
:04026000a8020000f0
:020000040000fa
:04026400a8020000ec
:020000040000fa
:04026800a8020000e8
:020000040000fa
:04026c00a8020000e4
:020000040000fa
:04027000a8020000e0
:020000040000fa
:04027400a8020000dc
:020000040000fa
:04027800a8020000d8
:020000040000fa
:04027c00a8020000d4
:020000040000fa
:04028000a8020000d0
:020000040000fa
:04028400a8020000cc
:020000040000fa
:04028800a8020000c8
:020000040000fa
:04028c00a8020000c4
:020000040000fa
:04029000a8020000c0
:020000040000fa
:04029400a8020000bc
:020000040000fa
:04029800a8020000b8
:020000040000fa
:04029c00a8020000b4
:020000040000fa
:0402a000a8020000b0
:020000040000fa
:0402a400a8020000ac
:020000040000fa
:0402a800a8020000a8
:020000040000fa
:0402ac00a8020000a4
:020000040000fa
:0402b000a8020000a0
:020000040000fa
:0402b400a80200009c
:020000040000fa
:0402b800a802000098
:020000040000fa
:0402bc00a802000094
:020000040000fa
:0402c000a802000090
:020000040000fa
:0402c400a80200008c
:020000040000fa
:0402c800a802000088
:020000040000fa
:0402cc00a802000084
:020000040000fa
:0402d000a802000080
:020000040000fa
:0402d400a80200007c
:020000040000fa
:0402d800a802000078
:020000040000fa
:0402dc00a802000074
:020000040000fa
:0402e000a802000070
:020000040000fa
:0402e400a80200006c
:020000040000fa
:0402e800a802000068
:020000040000fa
:0402ec00a802000064
:020000040000fa
:0402f000a802000060
:020000040000fa
:0402f400a80200005c
:020000040000fa
:0402f800a802000058
:020000040000fa
:0402fc00a802000054
:020000040000fa
:04030000a80200004f
:020000040000fa
:04030400a80200004b
:020000040000fa
:04030800a802000047
:020000040000fa
:04030c00a802000043
:020000040000fa
:04031000a80200003f
:020000040000fa
:04031400a80200003b
:020000040000fa
:04031800a802000037
:020000040000fa
:04031c00a802000033
:020000040000fa
:04032000a80200002f
:020000040000fa
:04032400a80200002b
:020000040000fa
:04032800a802000027
:020000040000fa
:04032c00a802000023
:020000040000fa
:04033000a80200001f
:020000040000fa
:04033400a80200001b
:020000040000fa
:100400006f8d20000e7f22000e018800000000008a
:10041000000020000000e000020032000001200087
:10042000200288000c000700c0c32000010020004b
:1004300011000700000020000000e0000200320070
:100440000000020000000000e204020000000000c2
:100450000040da000000fe004440a9000000200037
:100460000000e0000300320000002000a00188002e
:100470004440a80000000600910188008000780038
:100480000000eb0015003700e280400032a0b4000d
:100490009101ba00e280400032a0b4009102ba009b
:1004a000e280400032a0b4000002eb00472bde00e7
:1004b000f507b200602ce10004003a000059eb009f
:1004c0008301e900fdff3e00040037006128e100e0
:1004d000010032000082eb000b00070011c3ba00dc
:1004e0001101ba000604e00003003a000200e00037
:1004f000e5ff3a0000000600f607b200960188000a
:1005000082007800f5ff37003159ba008301e90015
:100510000c0032002159ba008301e90008003200c2
:100520000400e00003003a00e280400032a0b40082
:10053000f5ff370011d9ba008301e900faff3a004c
:100540008100e800e180400032a0b4000000060015
:100550000040da000000fe00889fbe008a9fbe00b7
:100560008c1f78009c000700a300330003866c00fa
:100570006450e1002e0032006420e10033003200bc
:100580006150e1002f0032006120e10031003200b3
:1005900085855500eb07b000090020000804200005
:1005a000050037000804440089844c000a0031002b
:1005b0000603430087834b000001530081815b00e9
:1005c000f8ff33000203be000800a0000804440046
:1005d00089844c00f6ff3900c639dd0083017300c1
:1005e00001003200130020008904d1000884d300e8
:1005f0000998a300050032000800a7000300a0002e
:100600008904d1000884d3008b05e8008904d10057
:100610000884d3000001eb000281d2003300070000
:1006200001f0a1000cf0a70001f0a0007b00370052
:100630006420e1007d0032000801be000200be001f
:10064000f7ff37006120e100780032006000b80059
:10065000f3ff37000000200001f82700f0ff37000b
:100660000001be00470007000470a70003f0a100ce
:100670006509b100160032000d0035006828e10060
:1006800006003500f0ff2f00f1ff27000300e00017
:1006900013003b000100280000000500000040009e
:1006a000818048008502e900fcff3a00080037001d
:1006b000f88f420002003c008000eb0000000500c3
:1006c0008100d1000080d3008502e800fcff3a00e1
:1006d0000300e00002003b0060001000e080180012
:1006e000000006006011b80087003700810020007c
:1006f000618055000b003d000b00200061fe2f00c3
:100700000100e1001d00340082817100610164007c
:100710008904d1000884d3000000e800faff3a0001
:10072000710020006100640003007000020060009e
:100730000900320061044400e0844c000988a500ef
:10074000050032008b05e8006808e10002003a006d
:100750008904d1000884d300f20f20000258e10080
:1007600005003d00c75ddd00f907b2008980750016
:1007700008007800000006000bf827008b007800c6
:1007800000000500c70ade00f107b200f50fb20055
:1007900008003200e1cf4200020032000170a000e8
:1007a00024000500810f70000100320004080500dc
:1007b00044000500810f700002003a00140005009b
:1007c0008502e9000000400081c04800fcff3b00ba
:1007d0000170a000240005000004be00e9ff07002e
:1007e0000003be000405be000200be00e5ff0700d6
:1007f000844f7500000006000200be006450e10056
:10080000050036006420e100020036000968a300fc
:1008100001003a000800be000160a0004f06780009
:100820004f05be004f04be0000000600f0ff2f0081
:10083000f1ff2700f9ff3700889fbe008a9fbe00a6
:100840008c1f7800e4ff0700ebff330003866c0089
:100850006450e100240032006420e10027003200ef
:100860006150e100220032006120e10021003200ed
:100870008b854200eb07b1000134b800003ab800a4
:100880000804420089844a00013ab8000030b800e8
:100890008880400009014a00040033000000400045
:1008a00081804800020149008b05e900c909dd008b
:1008b000830170000100320013002000c814de0024
:1008c0004814dd004709de001200b200c808de004f
:1008d0000884700085ff070001f0a1000cf0a7005c
:1008e00001f0a000cdff37006120e100cfff320012
:1008f0000801be000200be00f7ff37006150e100b2
:10090000fcff3a00c9ff3700889fbe008a9fbe00e7
:10091000008270000402710004827100260032001f
:100920000004be000200be006011b8006b09200088
:10093000950220000182cf000a0039000541b10074
:100940000082cf00070039000541b1000982cf00c5
:10095000040039000541b1000882cf0001003900d0
:100960000541b10005425200120032000a003b006e
:1009700082817100610164008100d1000080d30098
:100980008984d3000884d3008b05e8000442e80082
:10099000f7ff3a00070037000804440089844c0040
:1009a00000004800818048008b05e9000442e9000e
:1009b000f9ff3a004dff07004f05be004f04be008f
:0409c000000006002d
:020000040000fa
:1009c4000200fa00c022ef000080eb00301688001d
:1009d400cc22ef0000042200901688000080eb0077
:1009e400f0168800e422ef000828ef000a28ef0040
:1009f4001c28ef002028ef002228ef001e28ef001b
:100a04002628ef002828ef002428ef000428ef0010
:100a14000c28ef000e28ef001028ef001228ef003a
:100a24001428ef001628ef001828ef001a28ef000a
:100a34004000200030408800d702a800d722a80038
:100a44009b010700a8010700bb010700ce010700b6
:100a5400e10107000000eb00f30107000000eb00d8
:100a6400f70107000000eb00fb0107000000eb00aa
:100a7400ff0107002c63a8002c83a8002d03a80005
:100a84002d23a80000020700e922a900e8c2a9005a
:100a94009700070010002000000f780016c5b3006f
:100aa40015c5b30014c5b30013c5b30012c5b30014
:100ab40011c5b300a08a20000d000700210020000a
:100ac400a08a2000fa0007000028ef000300370086
:100ad400004080000000e8000040880001408000e1
:100ae40030022000808f5000f9ff3400f6ff3700f9
:100af4000800fa00881f7800000f7800214798004a
:100b04003247980043479800544798006547980037
:100b1400764798002e409000520007009e0078000f
:100b2400800878001e84e8003e4090004d000700d5
:100b3400000c78009e007800648440004e409000d1
:100b440048000700000c78009e007800668440008e
:100b54005e40900043000700000c78009e0078007f
:100b6400688440006e4090003e000700000c78004e
:100b74009e0078006a8440007e409000390007009f
:100b8400000c78004f0478000080fa000000060092
:100b94000600fa0010079800414798000000eb0097
:100ba400000f78000c0037001e00780000004000a1
:100bb4009e009000808040001e0078000000e80045
:100bc400000040001e019000000041001000780069
:100bd400800878001e0fe8001e007800e40f500023
:100be400f1ff34004e409000f94f50000a003e00df
:100bf4001e009000ea0040004e4090000080fb0080
:100c04000001400020832000000041001000780013
:100c140080087800110037004e409000f94f5000d2
:100c24000e003600ce40900040c2b30080cf50008a
:100c34000a003e001e009000ea0040004e40900072
:100c44000080fb007a005000000140006086200014
:100c54000000410010007800800878000080fa004d
:100c6400000006000200fa00004f780000c4b30040
:100c74009e40780080cf50000b003400a0c5b30024
:100c84009e40780080cf500007003c001e00fb000f
:100c94001004b10080004000208320000080400048
:100ca4001000780010003700f0c2b3009e407800b6
:100cb40080cf50000b00340090c3b3009e407800f6
:100cc40080cf500007003c001e00fb000003b10071
:100cd40080004000a08720000080400010007800c1
:100ce400010037000000eb000080fa00000006005d
:100cf4000000fa008540a9009540a90041e2a9003e
:100d04004382a9004362a9004342a9004322a900e7
:100d14004302a90042e2a90042c2a90042a2a900da
:100d240041e2a80040c2a9008540a9009540a8005e
:100d34000080fa00000006000200fa00000f7800ac
:100d44001e007800e10f50000e003a003040800091
:100d5400004078000043b00046c5b30065c4b3004a
:100d640054c4b300c3c4b3000041eb008040780016
:100d7400e08920005eff070011002000e0892000c8
:100d84004b0007001e007800e20f50000e003a00ee
:100d940030408000004078000043b00046c5b300f6
:100da40065c4b30054c4b300c3c4b3000041eb0032
:100db40080407800a08a20004dff07002100200019
:100dc400a08a20003a0007000080fa000000060014
:100dd4003600f800809fbe00829fbe00849fbe0044
:100de400869fbe000200fa008540a90040128000e0
:100df400004f7800201680004700de00614060004c
:100e04000004a200614060000080fb0061006000fb
:100e14004700dd0022168000f1f72f0081006100f9
:100e2400010070002016880040c2b3009e40780084
:100e340080cf500006003e009e407800e0892000ec
:100e440053ff070011002000e0892000180007006c
:100e54000080fa004f03be004f02be004f01be00e7
:100e64004f00be003600f900004006000000fa0002
:100e74008820a9009820a90061e2a9006382a90042
:100e84006362a9006342a90062a2a8006322a900c8
:100e94006302a90062c2a90061e2a80060c2a900bd
:100ea4008820a9009820a8000080fa00000006000d
:100eb4000800fa0020079800310798003e009000cf
:100ec400e10f500017003a002e0090001000780047
:100ed400504688002e0090000080e8001000780042
:100ee400604688002e0090006400400010007800e6
:100ef400704688002e0090006600400010007800c4
:100f0400804688002e0090006800400010007800a1
:100f1400904688002e0090006a004000100078007f
:100f2400a04688003e009000e20f500017003a00ef
:100f34002e0090006a00400010007800b045880040
:100f44002e0090006800400010007800c045880022
:100f54002e0090006600400010007800d045880004
:100f64002e0090006400400010007800e0458800e6
:100f74002e0090000080e80010007800f045880002
:100f84002e00900010007800004688000000eb005e
:100f9400000f7800410037003e009000e10f500040
:100fa40001003a00e922a9003e009000e20f50003f
:100fb40001003a00e8c2a9000000eb001007980005
:100fc4002a003700e902a9001e00900080004000ba
:100fd400608b200000804000900078001200200008
:100fe4001e0078000010dd00808060001e00780084
:100ff4000008de0000f0a7000000ea000000ea009c
:101004004f00de00004078000080fb0061006000bb
:101014004700dd0042178000f1f72f0081006100d6
:101024000100700040178800401780004700de0070
:10103400614060000004a200614060000080fb0089
:10104400610060004700dd0042178000f1f72f00c7
:10105400810061000100700040178800e902a800c7
:101064001e0090000000e800100798001e00900089
:10107400ef0f5000d3ff34003e009000e10f50000a
:1010840001003a00e922a8003e009000e20f50005f
:1010940001003a00e8c2a8001e0fe8001e00780014
:1010a400ef0f5000bcff34000080fa00000006007f
:1010b4000000fa0011e1a9001021a90010c1a90043
:1010c400800880000040a1000050a1008008880032
:1010d4000621ef00f0ff27006008880011e1a80056
:1010e4000080fa00000006000000fa00200c8000d6
:1010f4000000a1000010a1000020a100200c880025
:10110400f0002000100c8800f0002000000c880083
:101114008461a900f0002000100c8800200c8000dd
:101124000000a1000010a0000020a000200c8800f6
:101134000080fa00000006000000fa00500c800055
:101144000000a1000010a1000020a100500c8800a4
:10115400f0002000400c8800f0002000300c8800d3
:101164008a61a900f0002000400c8800500c800027
:101174000000a1000010a0000020a000500c880076
:101184000080fa00000006000000fa00800c8000d5
:101194000000a1000010a1000020a100800c880024
:1011a400f0002000700c8800f0002000600c880023
:1011b4009061a900f0002000700c8800800c800071
:1011c4000000a1000010a0000020a000800c8800f6
:1011d4000080fa00000006000000fa00b00c800055
:1011e4000000a1000010a1000020a100b00c8800a4
:1011f400f0002000a00c8800f0002000900c880073
:101204009661a900f0002000a00c8800b00c8000ba
:101214000000a1000010a0000020a000b00c880075
:101224000080fa00000006000200fa00000f7800b7
:101234009e007800010c88000080fa00000006007f
:101244000200fa00000f78009e007800310c88003c
:101254000080fa00000006000200fa00000f780087
:101264009e007800610c88000080fa0000000600ef
:101274000200fa00000f78009e007800910c8800ac
:101284000080fa00000006000000fa009460a80044
:101294002005800000c0a00000d0a10000e0a10053
:1012a4002005880005e1a800200880000040a00077
:1012b4000050a100200888000080fa000000060009
:1012c4003600f800809fbe00829fbe00849fbe004f
:1012d400869fbe003400f80000002000a0018800b2
:1012e4000400fa008460a9006000b800008fbe000a
:1012f400004180000000e0000c003200104180003a
:101304000000e80010418800f04080000000e00088
:101314000300320080418000c3ff0700070037004c
:1013240080418000c6ff0700040037000000eb0086
:10133400bdff07000000eb00c1ff07001041800063
:10134400ee0f500008003a00f0408000e10f50001a
:1013540005003a002228ef002028ef00f04080002a
:101364000000a200f040880010418000e80f500007
:1013740008003a00f04080000000e00005003a0058
:101384002228ef002028ef00f04080000000a20097
:10139400f0408800304180000000e0000c00320082
:1013a400404180000000e800404188002041800066
:1013b4000000e0000300320080418000a6ff070027
:1013c4000700370080418000a9ff070004003700b0
:1013d4000000eb00a0ff07000000eb00a4ff0700e3
:1013e40040418000e60f500008003a002041800090
:1013f4000000e00005003a002828ef002628ef004e
:10140400204180000000a20020418800404180006b
:10141400ed0f500008003a0020418000e10f500019
:1014240005003a002828ef002628ef00204180001c
:101434000000a20020418800111680000004200052
:101444000080680020168800804080000000e800ca
:101454008040880040168000680060000000e000c2
:1014640004003200704080000000e80070408800f2
:1014740003003700604080000000e80060408800fe
:101484008140800060418000808f5000480035001a
:101494006140800070418000808f50002c00350036
:1014a400904080000000e0003e003a0056c4b300c3
:1014b40095c5b30024c4b3008041eb000041eb00a8
:1014c4008040eb00e089200089fd07001100200026
:1014d400e089200076fe070010002000904088007c
:1014e400304080000000e8003040880020002000e8
:1014f40011fe07001000200090408800c462a9007b
:10150400c462a8006000b800008fbe000400370069
:1015140012002000030020001e0f41005e974900c6
:10152400e00f2000010020001e01be00800f5100ca
:10153400818f5900f6ff3400c462a9001000200016
:101544002041880010002000304188001500370039
:101554007140800060418000808f50001100350090
:1015640090408000e10f50000e003a001228ef0076
:101574000043eb008042eb000042eb008041eb00b3
:101584000041eb008040eb00e089200058fd07009b
:1015940011002000e089200045fe07001000200013
:1015a400304188000c28ef000e28ef001028ef00cf
:1015b400c04080000000e800c04088004016800061
:1015c400700060000000e00004003200b0408000c1
:1015d4000000e800b040880003003700a04080000d
:1015e4000000e800a0408800c14080006041800005
:1015f400808f500067003500a1408000704180005a
:10160400808f500037003500d04080000000e0009b
:101614005d003a00304080000000e0000c003a0019
:10162400c6c4b300c5c4b30054c5b30063c4b30097
:101634000041eb008040eb00a08a20002cfd070055
:1016440021002000a08a200019fe07004e00370068
:10165400f6c4b300c5c4b300c4c4b30053c4b300d8
:1016640082c4b3008040eb00a08a200020fd070064
:1016740021002000a08a20000dfe07001000200099
:10168400f040880010002000004188001000200075
:10169400d0408800c442a900c442a8006000b80039
:1016a400008fbe0004003700120020000300200059
:1016b4001e0f41005e974900e00f2000010020004a
:1016c4001e01be00800f5100818f5900f6ff3400c7
:1016d400c442a900304080000000e9003040880086
:1016e40029003700b140800060418000808f5000a5
:1016f40025003500d0408000e10f500022003a0060
:101704001a28ef00304080000000e0000c003a008e
:10171400c6c4b300c5c4b30054c5b30063c4b300a6
:101724000041eb008040eb00a08a2000f0fc0700a1
:1017340021002000a08a2000ddfd070012003700f0
:1017440030408000004078000043b00046c5b3003c
:1017540065c4b30054c4b300c3c4b3000041eb0078
:1017640080407800a08a2000e1fc070021002000ce
:10177400a08a2000cefd0700200020006efd070097
:1017840010002000004188001428ef001628ef0004
:101794001828ef000080fa003400f9004f03be005f
:1017a4004f02be004f01be004f00be003600f900dc
:1017b400004006000000fa00400e280000198800ce
:1017c4002223ef0050f02100201988002c63a90087
:1017d4002c83a9002d03a9002d23a9003023ef0099
:1017e4000080fa00000006000400fa0010079800c8
:1017f40021e3a9002023a9001e00900000407800e6
:101804006f4060000080fb006f00600042198000a0
:1018140001ff2f0081006100010070004019880061
:101824002023a80021e3a800000000000019800084
:10183400610060000000e000fcff3200001880003e
:101844008000eb00a6fb07000200200003482400f0
:1018540040fb070002002400e3542400f5fb0700ca
:101864007efb0700000f78001e0078000080fa005d
:04187400000006006a
:020000040000fa
:10187800320800005c00000002000000c1e52d00f5
:10188800ec6425002d6ce400a5c0a50065a5c10089
:10189800c12c2c006540c200116401004153430073
:1018a80043656500c0e5670065c2e500a5a50800b9
:1018b8002c654100501153004112120008123400e7
:1018c800347575000150e400e425e40081c1a600e8
:1018d80025e5a5000165e500e5a5e50065650100cc
:1018e80050e4e40025e48100c1a5a500e5a50100b8
:1018f80065e5e500a5e500008e0800004800000049
:1019080000000000000800002c000000000000009b
:101918002c0800000600000002000000050002007c
:0819280000ff2f00980c800065
:020000040000fa
:0419300000000000b3
:00000001FF
